:100000000C946D010C9495010C9495010C94950140
:100010000C9495010C9495010C9495010C94950108
:100020000C9495010C9495010C9464080C94300781
:100030000C9495010C9495010C9495010C949501E8
:100040000C9495010C9495010C9495010C949501D8
:100050000C9495010C9495010C9495010C94290233
:100060000C9495010C9495010C9495010C949501B8
:100070000C9495010C9495010C9495010C949501A8
:100080000C9495010C9495010C9495010C94950198
:100090000C9495010C9495010C9495010C94950188
:1000A0000C9495010C9495010C9495012C032F034D
:1000B0001E03220328035003500350033303370366
:1000C0003B034103450350034B03000000020009BA
:1000D0000F0000030401000C0000000000000000FD
:1000E00000000000000000000408020110408040F1
:1000F000102040804080080204018040201002014E
:10010000108010204040040404040403040502028B
:1001100002020403020202020606060606060404A0
:1001200002020204000000002300260029002C0027
:100130002F0000000000250028002B002E003100B9
:1001400000000000240027002A002D003000080BCA
:100150000002020201000904000001020200000581
:1001600024001001052401010104240206052406CF
:1001700000010705810310004009040100020A0084
:10018000000007050202400000070583024000004E
:1001900000C18081C11201000202000040412337EA
:1001A0008000010102000112010002000000404134
:1001B00023378000010102000141726475696E6F8E
:1001C000204C4C430041726475696E6F204D696329
:1001D000726F000403090400000000000000002A00
:1001E0002B280000000000000000000000000000BC
:1001F000000000000000002C9EB4A0A1A2A434A620
:10020000A7A5AE362D3738271E1F202122232425EF
:1002100026B333B62EB7B89F8485868788898A8BA4
:100220008C8D8E8F909192939495969798999A9B96
:100230009C9D2F3130A3AD350405060708090A0B34
:100240000C0D0E0F101112131415161718191A1B76
:100250001C1DAFB1B0B5000904020001030000008D
:100260000921010100012265000705840340000106
:1002700005010902A1010901A10085010509190172
:100280002903150025019503750181029501750566
:10029000810305010930093109381581257F750869
:1002A00095038106C0C005010906A1018502050765
:1002B00019E029E7150025017501950881029501CE
:1002C0007508810395067508150025650507190051
:1002D00029658100C000AC04250A11241FBECFEFA0
:1002E000DAE0DEBFCDBF11E0A0E0B1E0E4E7F4E189
:1002F00002C005900D92A437B107D9F721E0A4E719
:10030000B1E001C01D92A53EB207E1F712E0CAEDCF
:10031000D2E004C02297FE010E94340AC63DD107F4
:10032000C9F70E94DB080C94380A0C94000040E8DE
:1003300055E260E070E08FE791E00E94A60461E082
:1003400082E00E94510361E082E00E948A0360E043
:1003500083E00E94510360E088E00E94510361E065
:100360008AE00E94510361E08DE00E94510361E048
:100370008BE00C9451036AE071E08FE791E00E94FA
:10038000220583E00E94C003019721F481E080935D
:10039000750102C01092750188E00E94C0030197A8
:1003A00021F481E08093740102C010927401909155
:1003B0007401809175019923C9F0882319F06BE1CC
:1003C00071E002C06AE271E08FE791E00E942205CD
:1003D00061E08DE00E948A0360E08AE00E948A0367
:1003E00062E370E080E090E00C949602882319F1BB
:1003F00066E371E08FE791E00E94220560E08DE006
:100400000E948A0361E08AE00E948A0361E08BE037
:100410000E948A0364EF71E080E090E00E949602FF
:1004200060E08BE00E948A036CED75E080E090E074
:100430000E9496020AC06FE371E08FE791E00E948C
:10044000220560E08DE00E948A0360E08AE00C945F
:100450008A031F920F920FB60F9211242F933F938E
:100460008F939F93AF93BF93809177019091780181
:10047000A0917901B0917A013091760123E0230FA8
:100480002D3720F40196A11DB11D05C026E8230FCC
:100490000296A11DB11D2093760180937701909360
:1004A0007801A0937901B0937A0180917B019091BA
:1004B0007C01A0917D01B0917E010196A11DB11D2D
:1004C00080937B0190937C01A0937D01B0937E018A
:1004D000BF91AF919F918F913F912F910F900FBE40
:1004E0000F901F9018953FB7F89480917B019091E1
:1004F0007C01A0917D01B0917E0126B5A89B05C02D
:100500002F3F19F00196A11DB11D3FBF6627782F1F
:10051000892F9A2F620F711D811D911D42E0660F78
:10052000771F881F991F4A95D1F70895CF92DF92C0
:10053000EF92FF92CF93DF936B017C010E947302D5
:10054000EB01C114D104E104F10489F00E94EE082A
:100550000E9473026C1B7D0B683E734090F381E038
:10056000C81AD108E108F108C851DC4FEACFDF9181
:10057000CF91FF90EF90DF90CF900895789484B55D
:10058000826084BD84B5816084BD85B5826085BD8F
:1005900085B5816085BDEEE6F0E080818160808375
:1005A000E1E8F0E010828081826080838081816058
:1005B0008083E0E8F0E0808181608083E1E9F0E021
:1005C000808182608083808181608083E0E9F0E0C7
:1005D000808181608083E1ECF0E0808184608083B1
:1005E000808182608083808181608083E3ECF0E0A1
:1005F000808181608083E0ECF0E080818260808394
:10060000E2ECF0E0808181608083EAE7F0E08081C5
:100610008460808380818260808380818160808328
:10062000808180688083089590E0FC013197EF30ED
:10063000F105B0F5EA5AFF4F0C94320A8091800020
:100640008F7703C0809180008F7D80938000089514
:1006500080918000877FF9CF84B58F7702C084B501
:100660008F7D84BD0895809190008F7707C0809121
:1006700090008F7D03C080919000877F80939000D1
:1006800008958091C0008F7703C08091C0008F7D56
:100690008093C00008958091C200877F8093C2003C
:1006A0000895CF93DF9390E0FC01E851FF4F249130
:1006B000FC01EA5FFE4F8491882349F190E0880FA6
:1006C000991FFC01E05CFE4FA591B4918E5C9E4F9A
:1006D000FC01C591D4919FB7611108C0F8948C9129
:1006E000209582238C93888182230AC0623051F442
:1006F000F8948C91322F309583238C938881822BB0
:10070000888304C0F8948C91822B8C939FBFDF91D7
:10071000CF9108950F931F93CF93DF931F92CDB77F
:10072000DEB7282F30E0F901E653FF4F8491F9013D
:10073000E851FF4F1491F901EA5FFE4F0491002345
:10074000C9F0882321F069830E9414036981E02F96
:10075000F0E0EE0FFF1FEE5CFE4FA591B4919FB746
:10076000F8948C91611103C01095812301C0812BF5
:100770008C939FBF0F90DF91CF911F910F910895A0
:10078000CF93DF93282F30E0F901E653FF4F849198
:10079000F901E851FF4FD491F901EA5FFE4FC4918E
:1007A000CC2391F081110E941403EC2FF0E0EE0FA6
:1007B000FF1FEC5DFE4FA591B4912C912D2381E09C
:1007C00090E021F480E002C080E090E0DF91CF91E2
:1007D0000895CF93DF931F92CDB7DEB76983DC0115
:1007E000ED91FC910280F381E02D41E050E0BE01EB
:1007F0006F5F7F4F09950F90DF91CF910895CF9351
:10080000DF93EC018C859D8597FF05C082E00E94F7
:1008100005069D878C878C859D85DF91CF910895F6
:1008200083E00C945A08FC018485958597FD06C0E9
:1008300082E00E94AD0590E00196089582E00E945A
:10084000AD0590E00895FC018485958597FD05C070
:100850002FEF3FEF35872487089582E00C9405063B
:10086000CF93DF93EC0180910701882331F083E07F
:100870000E9436061816190634F081E090E09B833A
:100880008A8380E090E0DF91CF910895FC01208180
:100890002E5F208342E450E06EE471E080E80C9427
:1008A000D106FC0181819081913A59F4813209F09D
:1008B0003CC047E050E060E071E080E00E94D1067B
:1008C00043C0913291F5803239F467E070E080E006
:1008D00091E00E94020706C0823209F035C0828191
:1008E000809307018091000190910101A091020184
:1008F000B0910301803B9440A105B105C1F4809102
:10090000070180FD14C087E797E790930108809363
:1009100000082BE088E190E00FB6F894A89580934A
:1009200060000FBE209360000FC080E0089588E152
:100930000FB6F89480936000109260000FBEA895E7
:10094000109201081092000881E008952FEF3FEF08
:10095000FC0135872487089510928201109281014D
:1009600088EE93E0A0E0B0E080938301909384014F
:10097000A0938501B09386018AE591E09093800170
:1009800080937F018FEF9FEF90938C0180938B0179
:100990000895CF92DF92EF92FF920F931F93CF9320
:1009A000DF936C017A01EB01E60EF71E00E010E028
:1009B000CE15DF0561F06991D601ED91FC910190B2
:1009C000F081E02DC6010995080F191FF1CFC8016C
:1009D000DF91CF911F910F91FF90EF90DF90CF901B
:1009E00008956115710581F0DB010D900020E9F794
:1009F000AD0141505109461B570BDC01ED91FC91B3
:100A00000280F381E02D099480E090E00895DC01FC
:100A1000ED91FC910190F081E02D09940F931F93CB
:100A2000CF93DF93EC016DE00E9407058C016AE033
:100A3000CE010E940705800F911FDF91CF911F917A
:100A40000F9108950F931F93CF93DF93EC010E94B2
:100A5000F1048C01CE010E940E05800F911FDF91E1
:100A6000CF911F910F9108954091D3015091D401DE
:100A70002091D1013091D20142175307B4F49091E3
:100A8000E8009570E1F39091E80092FD19C0809321
:100A9000F1008091D3019091D40101968F73992731
:100AA000892B19F48EEF8093E8008091D301909107
:100AB000D40101969093D4018093D30181E00895ED
:100AC00080E00895CF92DF92FF920F931F93CF9310
:100AD000DF931F92CDB7DEB7082F162F862F880F12
:100AE0008E5F99830E94340583E00E943405F02EC6
:100AF000C02E9981D92E8C2D8F19811778F4F6018B
:100B000084910E943405082F80E00E9434058023E0
:100B1000FFEFCF1ADF0A8111EECF01C081E00F9005
:100B2000DF91CF911F910F91FF90DF90CF900895AB
:100B3000615030F02091F100FC0120830196F8CF44
:100B4000289A84E68093D60108952FB7FC0120836C
:100B5000F89467706093E9000895CF93DF931F9234
:100B6000CDB7DEB7682FCE0101960E94A505809112
:100B7000F20099819FBF0F90DF91CF910895FF926E
:100B80000F931F93CF93DF9300D0CDB7DEB7F62E30
:100B90008A019091D501992311F057FF03C08FEF7F
:100BA0009FEF2BC0682FCE0101967A830E94A50586
:100BB0008091F20090E0A8017A81801791070CF4EF
:100BC000AC01EF2DF72FF40E84E6FE1639F0289ACB
:100BD0008093D6019091F1009193F7CF4115510583
:100BE00021F08091F200882321F089818FBFCA0112
:100BF00004C08BE68093E800F8CF0F900F90DF9150
:100C0000CF911F910F91FF900895CF93DF931F9283
:100C1000CDB7DEB741E050E0BE016F5F7F4F0E946D
:100C2000BF05019719F4898190E002C08FEF9FEF13
:100C30000F90DF91CF910895CF93DF931F92CDB79F
:100C4000DEB7682FCE0101960E94A5059091E800BD
:100C5000892F807295FF04C09091F20080E4891B77
:100C600099819FBF0F90DF91CF9108956F927F92EE
:100C70008F929F92AF92BF92CF92DF92EF92FF92AC
:100C80000F931F93CF93DF931F92CDB7DEB7782ECC
:100C90007B01C42EB52E8091D501882369F0042FE5
:100CA000152F8AEFD82E872D8072982E9AE3A92EC1
:100CB000872D8074882E11C08FEF9FEF57C0872D2E
:100CC0000E941C06682E81110CC0DA94A9F361E021
:100CD00070E080E090E00E9496020115110579F71E
:100CE0003BC0282F30E0021713070CF4602E672D4D
:100CF000CE0101960E94A5058091E80085FF29C0DC
:100D0000262D30E0021B130B992039F06A948FEFE7
:100D10006816B1F01092F100F9CFF701862D77FE39
:100D200007C0815058F094919093F1003196F9CF1B
:100D3000815020F091919093F100FACFE20EF31ED2
:100D40008091E80085FF0FC00115110511F4811095
:100D50000AC089818FBFC1CF5D9A84E68093D70195
:100D60008C2D9B2D03C0A092E800F3CF0F90DF9154
:100D7000CF911F910F91FF90EF90DF90CF90BF9098
:100D8000AF909F908F907F906F9008951092E900A0
:100D90001092D4011092D3019093D2018093D1018B
:100DA0000895CF92DF92FF920F931F93CF93DF931B
:100DB00000D0CDB7DEB7F82E8A016B010115110501
:100DC000B1F0F601F7FE02C0849101C08081498331
:100DD0005A830E94340501501109FFEFCF1ADF0A30
:100DE00049815A818111EACF8FEF9FEF01C0CA017B
:100DF0000F900F90DF91CF911F910F91FF90DF9097
:100E0000CF9008951F93CF93DF931F92CDB7DEB796
:100E1000162F2091E80022FFFCCF612F79830E94DA
:100E200098058BEF8093E800812F7981972F0F90A1
:100E3000DF91CF911F910895CF93DF931F92CDB78C
:100E4000DEB71982CE0101960E944604CE010196BA
:100E50000E940D09898190E00F90DF91CF91089554
:100E60001F920F920FB60F921124EF92FF920F93E1
:100E70001F932F933F934F935F936F937F938F9322
:100E80009F93AF93BF93EF93FF93CF93DF93CDB730
:100E9000DEB76297DEBFCDBF1092E9008091E80017
:100EA00083FFEBC068E0CE010A960E94980582EFAE
:100EB0008093E8009A8597FF05C08091E80080FF45
:100EC000FCCF03C08EEF8093E800892F807609F075
:100ED000B9C08B85811105C01092F1001092F1000C
:100EE000C5C0282F2D7F213009F4C0C0853049F4BA
:100EF0008091E80080FFFCCF8C8580688093E300C0
:100F0000B5C0863009F076C02D85E888F988223092
:100F100071F580E090E02A8B0E94C6060E941C07B3
:100F200099E08E010F5F1F4FF801392F11923A950A
:100F3000E9F799832A892A8391E09E8390E898872C
:100F40009AEF99872091D3013091D401275F3F4FC9
:100F50003C832B838D83C7010E94C60649E050E085
:100F6000B80180E00E94D1060E941C077FC0C70123
:100F70002A8B0E94C6062A89223241F482E290E03E
:100F80000E941809892B09F071C074C0213069F4DE
:100F900088899989089711F42093D0018091D00114
:100FA000811118C067EA71E01AC0233009F062C0ED
:100FB0008C85882391F0823021F46DE085EC91E0FE
:100FC00006C0813009F056C06BE089EB91E00E94C9
:100FD00062054AC065E971E002C063ED71E0611528
:100FE000710509F447C0FB01449150E080E80E947C
:100FF000D1063CC0873009F43DC0883021F481E03F
:101000008093F10033C0893089F5937099F5E1E957
:10101000F1E081E021E096E38093E9002093EB008A
:1010200034913093EC009093ED008F5F31968530D2
:1010300099F78EE78093EA001092EA008C858093FE
:10104000D50114C0888999890E94C6068E858111B0
:1010500005C0CE010A960E94510406C0823051F4A8
:10106000CE010A960E944009882321F08EEF8093DA
:10107000E80003C081E28093EB0062960FB6F8941B
:10108000DEBF0FBECDBFDF91CF91FF91EF91BF913A
:10109000AF919F918F917F916F915F914F913F9110
:1010A0002F911F910F91FF90EF900F900FBE0F9017
:1010B0001F9018958093E9008091F200882319F021
:1010C0008AE38093E80008951F920F920FB60F9263
:1010D00011242F933F934F935F936F937F938F933D
:1010E0009F93AF93BF93EF93FF938091E100109292
:1010F000E10083FF0FC01092E90091E09093EB00B4
:101100001092EC0092E39093ED001092D50198E0DC
:101110009093F00082FF1DC083E00E945A088091E6
:10112000D701882339F08091D70181508093D7016E
:10113000882369F08091D601882359F08091D601E7
:1011400081508093D601811104C0289802C05D9817
:10115000F1CFFF91EF91BF91AF919F918F917F91CF
:101160006F915F914F913F912F910F900FBE0F9014
:101170001F9018951092D50181E08093D70080EAE6
:101180008093D80082E189BD09B400FEFDCF61E003
:1011900070E080E090E00E94960280E98093D800A1
:1011A0008CE08093E2001092E000559A209A5D98BE
:1011B0002898089508950E94BE020E94DA088FECD4
:1011C00091E00E94BA080E949701C0E0D0E00E941E
:1011D000BB012097E1F30E940000F9CF0895FF9230
:1011E0000F931F93CF93DF93EC01F62EE881F981E3
:1011F0000480F581E02D09958C01E881F981068054
:10120000F781E02D6F2DCE010995C8019927DF9157
:10121000CF911F910F91FF900895FC0120812F5FC6
:10122000208349E150E067E572E080E80C94D10644
:1012300045E650E060E772E080E80C94D106EF925A
:10124000FF920F931F93CF93DF931F92CDB7DEB71B
:1012500089838B017A0141E050E0BE016F5F7F4FCF
:1012600084E00E943606A701B80184E40E94360695
:101270000F90DF91CF911F910F91FF90EF90089504
:10128000FC0191818081813A31F481E0913091F0CB
:10129000933089F411C0813271F49B3021F4828142
:1012A0008093090105C09A3031F48281809308014E
:1012B00081E00895089580E0089548E050E082E0DC
:1012C0000C941F09CF93DF93DC01683818F0E8E72E
:1012D000E60F25C0E62FF0E067FF11C0E058F109E6
:1012E00081E090E001C0880FEA95EAF714969C919E
:1012F0001497982B14969C931497E0E010C0E95231
:10130000FE4FE491EE2309F440C0E7FF08C01496B5
:101310008C911497826014968C931497EF7716969D
:101320008C9116978E1741F117968C9117978E17FF
:1013300019F118968C9118978E17F1F019968C91D7
:1013400019978E17C9F01A968C911A978E17A1F0DB
:101350001B968C911B978E1779F080E090E0ED0141
:10136000C80FD91F2E81211102C0EE8305C001963E
:1013700086309105A1F709C0BD016C5F7F4FCD019B
:101380000E945D0981E090E008C081E090E0139642
:101390009C938E93129780E090E0DF91CF91089517
:1013A000683818F0E8E7E60F25C0E62FF0E067FFA1
:1013B00012C0E058F10921E030E001C0220FEA95A7
:1013C000EAF72095DC0114963C9114973223149689
:1013D0003C93E0E00FC0E952FE4FE491EE2329F187
:1013E000E7FF08C0DC0114962C9114972D7F14960A
:1013F0002C93EF7720E030E0EE2351F0DC01A20FD8
:10140000B31F16964C9116974E1302C016961C9257
:101410002F5F3F4F2630310579F7BC016C5F7F4F5E
:101420000E945D0981E090E0089580E090E00895D9
:10143000FC0116821782108611861286138614828A
:10144000BC016C5F7F4F0C945D091092E401109217
:10145000DB011092DA018AE691E09093D901809342
:10146000D8010895EE0FFF1F0590F491E02D099427
:04147000F894FFCF1E
:1014740000E100000000000001013D3D204C6F6FC1
:1014840070205374617274203D3D0048697420617A
:101494006E642047726F756E640047726F756E6478
:1014A400204F6E6C7900486974204F6E6C79004E41
:1014B40065697468657220486974206E6F7220478C
:1014C400726F756E640000000000E90330041304B9
:1014D4002304FF03100400000000EF08C90462099C
:0414E400D009180A09
:00000001FF
